S01F00007472616E736D69747465725F746573745F73696E676C652E7372656348
S11300000C9434000C9446000C9446000C94460066
S11300100C9446000C9446000C9446000C94460044
S11300200C9446000C9446000C9446000C94460034
S11300300C9446000C9446000C9446000C94460024
S11300400C9446000C9446000C9446000C94460014
S11300500C9446000C9446000C9446000C94460004
S11300600C9446000C94460011241FBECFEFD8E038
S1130070DEBFCDBF21E0A0E0B1E001C01D92A13000
S1130080B207E1F70E9448000C9408010C940000A8
S113009060E875E280E090E00E9494000E94850090
S11300A068E080E00E94670080E00E94780080930E
S11300B000010E94C2000E94DF002FEF83ED90E355
S11300C0215080409040E1F700C00000E9CFCF9379
S11300D0C62F95B19B7F95B98F7180620E948E0067
S11300E08C2F0E948E0085B1846085B9CF910895CC
S11300F095B19B7F95B98F710E948E0080E00E941C
S11301008E0095B1946095B9089584B18C6284B9D8
S113011084B18F7E84B981E58CBD08958EBD0DB404
S113012007FEFDCF8EB50895DC01CB01880F991F22
S1130130AA1FBB1F880F991FAA1FBB1F9C01AD01DB
S1130140220F331F441F551F220F331F441F551FF7
S113015060E074E284EF90E00E94E60021503109EF
S11301603093C5002093C40088E18093C10086E0E9
S11301708093C20008959091C00095FFFCCF8093B6
S1130180C6000895CF93DF93D82FC8E0CC23A1F005
S11301902C2F30E0215031098D2F90E002C095952D
S11301A087952A95E2F780FF02C081E301C080E3CE
S11301B00E94BB00C150EACFDF91CF9108958DE03A
S11301C00E94BB008AE00E94BB000895A1E21A2E9F
S11301D0AA1BBB1BFD010DC0AA1FBB1FEE1FFF1FE7
S11301E0A217B307E407F50720F0A21BB30BE40B37
S11301F0F50B661F771F881F991F1A9469F760957E
S11302007095809590959B01AC01BD01CF01089537
S1070210F894FFCF8C
S9030000FC
