S01F00007472616E736D69747465725F746573745F73696E676C652E7372656348
S11300000C9434000C9451000C9451000C94510045
S11300100C9451000C9451000C9451000C94510018
S11300200C9451000C9451000C9451000C94510008
S11300300C9451000C9451000C9451000C945100F8
S11300400C9451000C9451000C9451000C945100E8
S11300500C9451000C9451000C9451000C945100D8
S11300600C9451000C94510011241FBECFEFD8E022
S1130070DEBFCDBF11E0A0E0B1E0EEE4F3E002C0EA
S113008005900D92AA30B107D9F721E0AAE0B1E0BA
S113009001C01D92AA30B207E1F70E9453000C94EC
S11300A0A5010C940000CF93DF93CDB7DEB72F9753
S11300B00FB6F894DEBF0FBECDBF60E875E280E0F6
S11300C090E00E9431010E94220185E0E0E0F1E02D
S11300D0DE01119601900D928A95E1F785E0E5E045
S11300E0F1E0DE01169601900D928A95E1F763E046
S11300F083E00E94CC0045E0BE016F5F7F4F8AE041
S11301000E94DD0045E0BE01655F7F4F8AE00E94EA
S1130110FD008B850E945F018C850E945F018D85A7
S11301200E945F018E850E945F018F850E945F019E
S11301300E947C012FEF83ED90E32150804090409A
S1130140E1F700C0000045E0BE016A5F7F4F8AE02E
S11301500E94DD0045E0BE01655F7F4F8AE00E949A
S1130160FD008B850E945F018C850E945F018D8557
S11301700E945F018E850E945F018F850E945F014E
S11301800E947C012FEF83ED90E32150804090404A
S1130190E1F700C00000AFCFCF93C62F95B19B7F8E
S11301A095B98F7180620E942B018C2F0E942B01C4
S11301B085B1846085B9CF9108950F931F93CF9330
S11301C0DF938B01D42F95B19B7F95B98F7180629A
S11301D00E942B01C0E0CD1740F4F801EC0FF11D93
S11301E080810E942B01CF5FF6CF85B1846085B9F1
S11301F0DF91CF911F910F910895EF92FF920F938A
S11302001F93CF93DF937B01D42F95B19B7F95B937
S11302108F710E942B01C0E0CD1750F487010C0FA1
S1130220111D80E00E942B01F8018083CF5FF4CF81
S113023085B1846085B9DF91CF911F910F91FF90B3
S1130240EF90089584B18C6284B984B18F7E84B9AF
S113025081E58CBD08958EBD0DB407FEFDCF8EB52E
S11302600895DC01CB01880F991FAA1FBB1F880FBB
S1130270991FAA1FBB1F9C01AD01220F331F441FEE
S1130280551F220F331F441F551F60E074E284EF93
S113029090E00E948301215031093093C5002093DE
S11302A0C40088E18093C10086E08093C200089571
S11302B09091C00095FFFCCF8093C6000895CF9322
S11302C0DF93D82FC8E0CC23A1F02C2F30E02150AD
S11302D031098D2F90E002C0959587952A95E2F714
S11302E080FF02C081E301C080E30E945801C15035
S11302F0EACFDF91CF9108958DE00E9458018AE002
S11303000E9458010895A1E21A2EAA1BBB1BFD01ED
S11303100DC0AA1FBB1FEE1FFF1FA217B307E407E0
S1130320F50720F0A21BB30BE40BF50B661F771F38
S1130330881F991F1A9469F7609570958095909518
S11103409B01AC01BD01CF010895F894FFCFDD
S10D034E0102030405050403020183
S9030000FC
