S01F00007472616E736D69747465725F746573745F73696E676C652E7372656348
S11300000C9434000C9451000C9451000C94510045
S11300100C9451000C9451000C9451000C94510018
S11300200C9451000C9451000C9451000C94510008
S11300300C9451000C9451000C9451000C945100F8
S11300400C9451000C9451000C9451000C945100E8
S11300500C9451000C9451000C9451000C945100D8
S11300600C9451000C94510011241FBECFEFD8E022
S1130070DEBFCDBF11E0A0E0B1E0E2EAF4E002C0EF
S113008005900D92A836B107D9F721E0A8E6B1E0B2
S113009001C01D92A836B207E1F70E9453000C94E8
S11300A04F020C940000CF93DF93CDB7DEB7A59732
S11300B00FB6F894DEBF0FBECDBF60E875E280E0F6
S11300C090E00E94C8010E94B90185E0E0E0F1E0FF
S11300D0DE01119601900D928A95E1F78BE1E5E03E
S11300E0F1E0DE01169601900D928A95E1F780E029
S11300F00E94F6000E9409020E940C016AE0CE01EF
S113010001960E94430180E291E00E94F60181EE93
S11301100E9403018FE39CE90197F1F700C00000FE
S113012087E10E94F600182F8FE291E00E94F60109
S1130130812F0E94090284E391E00E94F6010E944B
S1130140260260E2CE0106960E946B01813021F402
S11301508FE491E00E94F6018BE591E00E94F601A4
S113016080E00E94F6000E9409020E94260284E3B5
S113017091E00E94F6019FEF23E284EF915020402A
S11301808040E1F700C00000DCCFCF93C62F95B1CB
S11301909B7F95B98F7180620E94C2018C2F0E944F
S11301A0C20185B1846085B9CF9108950F931F93DF
S11301B0CF93DF938B01D42F95B19B7F95B98F712A
S11301C080620E94C201C0E0CD1740F4F801EC0F38
S11301D0F11D80810E94C201CF5FF6CF85B184609A
S11301E085B9DF91CF911F910F91089595B19B7FB0
S11301F095B98F710E94C20180E00E94C20195B13D
S1130200946095B9089595B19B7F95B90E94C201F8
S113021085B1846085B908950E94B90184B1826072
S113022084B984B1846084B985B18D7F85B985B181
S1130230846085B98FE19EE40197F1F700C0000066
S113024060E080E00E94C50060E081E00E94C5009B
S113025060E082E00E94C50063E083E00E94C50084
S113026060E084E00E94C50060E085E00E94C50073
S11302706EE086E00E94C50085B1826085B985B1D3
S11302808B7F85B90895CF93DF93EC0185B18D7F82
S113029085B985B1846085B985E00E94C50045E0D3
S11302A0BE0180E10E94D60080E00E94F600682F23
S11302B0626080E00E94C5008FE39FE10197F1F73F
S11302C000C0000085B1826085B985B18B7F85B996
S11302D0DF91CF9108950F931F93CF93DF938C01F8
S11302E0D62F85B18B7F85B980EA0E94C201C0E018
S11302F0CD1740F4F801EC0FF11D80810E94C2017A
S1130300CF5FF6CF85B1846085B985B1826085B948
S11303108AE68A95F1F700C085B18D7F85B98FE9AA
S11303209FE00197F1F700C0000087E10E94F6000A
S1130330C82F8FE291E00E94F6018C2F0E940902DF
S11303400E9426028C2F8071C4FF0EC0C3FD0BC017
S113035081EE0E94030182E691E00E94F6010E9470
S1130360260281E001C080E0DF91CF911F910F91BF
S1130370089584B18C6284B984B18F7E84B981E597
S11303808CBD08958EBD0DB407FEFDCF8EB50895C6
S1130390DC01CB01880F991FAA1FBB1F880F991F6F
S11303A0AA1FBB1F9C01AD01220F331F441F551F01
S11303B0220F331F441F551F60E074E284EF90E066
S11303C00E942D02215031093093C5002093C400AE
S11303D088E18093C10086E08093C20008959091E3
S11303E0C00095FFFCCF8093C6000895CF93DF93A0
S11303F0EC018881882321F021960E94EF01F9CF36
S11304008DE00E94EF018AE00E94EF01DF91CF911D
S11304100895CF93DF93D82FC8E0CC23A1F02C2FDD
S113042030E0215031098D2F90E002C095958795D9
S11304302A95E2F780FF02C081E301C080E30E94B5
S1130440EF01C150EACFDF91CF9108958DE00E9472
S1130450EF018AE00E94EF010895A1E21A2EAA1B7F
S1130460BB1BFD010DC0AA1FBB1FEE1FFF1FA21760
S1130470B307E407F50720F0A21BB30BE40BF50B5D
S1130480661F771F881F991F1A9469F760957095E6
S1130490809590959B01AC01BD01CF010895F8941E
S10504A0FFCF88
S11304A2EEDDCCBBAA616E74656E612064656C611D
S11304B2206A6562656D206A69206D6174657200E7
S11304C2426567696E6E696E67202E2E2E20006665
S11304D269666F002D2D2D2D2D2D2D2D2D2D2D2DBC
S11304E22D2D2D2D2D2D2D2D2D2D2D2D2D2D00741C
S11304F272616E736D697474656400636F6E6669AC
S10B05026700746573740000C6
S9030000FC
