S01F00007472616E736D69747465725F746573745F73696E676C652E7372656348
S11300000C9434000C9449000C9449000C9449005D
S11300100C9449000C9449000C9449000C94490038
S11300200C9449000C9449000C9449000C94490028
S11300300C9449000C9449000C9449000C94490018
S11300400C9449000C9449000C9449000C94490008
S11300500C9449000C9449000C9449000C944900F8
S11300600C9449000C94490011241FBECFEFD8E032
S1130070DEBFCDBF11E0A0E0B1E0E6E4F2E002C0F3
S113008005900D92A630B107D9F70E9494000C9404
S113009021010C940000CF93DF93CDB7DEB72A97EC
S11300A00FB6F894DEBF0FBECDBF0E94D9006AE040
S11300B080E00E94A30061E081E00E94A30061E06F
S11300C085E00E94A30066E086E00E94A30061E050
S11300D081E10E94A30085E0E0E0F1E0DE011196F9
S11300E001900D928A95E1F745E0BE016F5F7F4F65
S11300F080E10E94B40085E0E0E0F1E0DE011696C4
S113010001900D928A95E1F745E0BE016A5F7F4F49
S11301108AE00E94B4002A960FB6F894DEBF0FBEA0
S1130120CDBFDF91CF9108950E944B008BE20E94D6
S1130130F9002FEF83ED90E3215080409040E1F7E8
S113014000C00000F3CFCF93C62F95B19B7F95B924
S11301508F7180620E941B018C2F0E941B0185B14C
S1130160846085B9CF9108950F931F93CF93DF9344
S11301708B01D42F95B19B7F95B98F7180620E94BA
S11301801B01C0E0CD1740F4F801EC0FF11D808194
S11301900E941B01CF5FF6CF85B1846085B9DF91E2
S11301A0CF911F910F910895682F85E00E94A300BD
S11301B008950E94120184B1826084B985B18D7F53
S11301C085B984B1846084B985B18B7F85B98FE1A9
S11301D09EE40197F1F700C0000082E00E94D40081
S11301E066E086E00E94A30061E081E00E94A30033
S11301F00895CF93C82F85B18B7F85B980EA0E947B
S11302001B018C2F0E941B0185B1846085B985B1C7
S1130210826085B980E58A95F1F785B18D7F85B9CE
S1130220CF91089584B1886284B984B18F7E84B9F2
S113023081E58CBD08958EBD0DB407FEFDCF8EB54E
S10902400895F894FFCFBD
S1090246E8E8F0F0E1001D
S9030000FC
