S01F00007472616E736D69747465725F746573745F73696E676C652E7372656348
S11300000C9434000C9449000C9449000C9449005D
S11300100C9449000C9449000C9449000C94490038
S11300200C9449000C9449000C9449000C94490028
S11300300C9449000C9449000C9449000C94490018
S11300400C9449000C9449000C9449000C94490008
S11300500C9449000C9449000C9449000C944900F8
S11300600C9449000C94490011241FBECFEFD8E032
S1130070DEBFCDBF11E0A0E0B1E0E4E2F2E002C0F7
S113008005900D92A630B107D9F70E9494000C9404
S113009010010C940000CF93DF93CDB7DEB72A97FD
S11300A00FB6F894DEBF0FBECDBF0E94E1006AE038
S11300B080E00E94B20061E081E00E94B20061E051
S11300C085E00E94B20066E086E00E94B20061E032
S11300D081E10E94B20085E0E0E0F1E0DE011196EA
S11300E001900D928A95E1F745E0BE016F5F7F4F65
S11300F080E10E94C10085E0E0E0F1E0DE011696B7
S113010001900D928A95E1F745E0BE016A5F7F4F49
S11301108AE00E94C1002A960FB6F894DEBF0FBE93
S1130120CDBFDF91CF9108950E944B008BE20E94D6
S1130130F6002FEF83ED90E3215080409040E1F7EB
S113014000C00000F3CF84B18C6284B984B18F7E87
S113015084B981E58CBD08958EBD0DB407FEFDCF35
S11301608EB50895CF93C62F95B19B7F95B90E9404
S1130170AC008C2F0E94AC0085B1846085B9CF910E
S113018008950F931F93CF93DF938B01D42F95B1D1
S11301909B7F95B98F7180620E94AC00C0E0CD173F
S11301A040F4F801EC0FF11D80810E94AC00CF5F98
S11301B0F6CF85B1846085B9DF91CF911F910F91FE
S11301C008950E94A30084B1826084B985B18D7FB3
S11301D085B984B1846084B985B18B7F85B981EE9A
S11301E094E00197F1F700C000000895CF93C82F61
S11301F085B18B7F85B980EA0E94AC008C2F0E9468
S1130200AC0085B1846085B985B1826085B983E02D
S11302108A95F1F7000085B18D7F85B9CF91089556
S1070220F894FFCF7C
S1090224E8E8F0F0E1003F
S9030000FC
