S01F00007472616E736D69747465725F746573745F73696E676C652E7372656348
S11300000C9434000C9451000C9451000C94510045
S11300100C9451000C9451000C9451000C94510018
S11300200C9451000C9451000C9451000C94510008
S11300300C9451000C9451000C9451000C945100F8
S11300400C9451000C9451000C9451000C945100E8
S11300500C9451000C9451000C9451000C945100D8
S11300600C9451000C94510011241FBECFEFD8E022
S1130070DEBFCDBF11E0A0E0B1E0E2ECFAE002C0E7
S113008005900D92AA34B107D9F721E0AAE4B1E0B2
S113009001C01D92AA34B207E1F70E948B000C94B0
S11300A05F050C94000087B1807F87B980E6809358
S11300B07C0086E880937A0008958770ECE7F0E08E
S11300C09081987F892B8083EAE7F0E080818064C7
S11300D0808380917A0084FFFCCFEAE7F0E080819E
S11300E080618083809179000895CF93DF93EC0140
S11300F080E00E945D00888381E00E945D00898326
S113010082E00E945D008A8383E00E945D008B830D
S1130110DF91CF910895CF93DF93CDB7DEB7C75565
S1130120D1090FB6F894DEBF0FBECDBF60E875E20B
S113013080E090E00E94F5010E94E6010E945300D5
S113014085E0E0E0F1E0DE01119601900D928A95E0
S1130150E1F7FE01369680E2DF011D928A95E9F708
S113016080E00E9432010E9436020E9448016AE047
S1130170CE0101960E947F0185E091E00E94230256
S113018081EE0E943F018FE39CE90197F1F700C0E3
S11301900000CE0106960E94750060E2CE0106962C
S11301A00E94A701813019F584E191E00E942302A5
S11301B0398528859F818E811F923F931F922F93AB
S11301C01F929F931F928F9380E291E09F938F934E
S11301D08E010A5D1F4F1F930F930E947502C80181
S11301E00E9423020FB6F894DEBF0FBECDBFBFEF4F
S11301F020E782E0B15020408040E1F700C00000D9
S1130200C8CFCF93C62F95B19B7F95B98F7180626C
S11302100E94EF018C2F0E94EF0185B1846085B9A3
S1130220CF9108950F931F93CF93DF938B01D42F16
S113023095B19B7F95B98F7180620E94EF01C0E0F8
S1130240CD1740F4F801EC0FF11D80810E94EF01FD
S1130250CF5FF6CF85B1846085B9DF91CF911F91CF
S11302600F91089595B19B7F95B98F710E94EF010D
S113027080E00E94EF0195B1946095B9089595B11D
S11302809B7F95B90E94EF0185B1846085B908957B
S11302900E94E60184B1826084B984B1846084B927
S11302A085B18D7F85B985B1846085B98FE19EE480
S11302B00197F1F700C0000060E080E00E940101B6
S11302C060E081E00E94010160E082E00E9401019F
S11302D063E083E00E94010160E084E00E94010188
S11302E060E085E00E9401016EE086E00E94010169
S11302F085B1826085B985B18B7F85B90895CF9327
S1130300DF93EC0185B18D7F85B985B1846085B9B2
S113031085E00E94010145E0BE0180E10E941201D6
S113032080E00E943201682F626080E00E94010137
S11303308FE39FE10197F1F700C0000085B182606F
S113034085B985B18B7F85B9DF91CF9108950F93DE
S11303501F93CF93DF938C01D62F85B18B7F85B903
S113036080EA0E94EF01C0E0CD1740F4F801EC0FE1
S1130370F11D80810E94EF01CF5FF6CF85B18460CB
S113038085B985B1826085B98AE68A95F1F700C09E
S113039085B18D7F85B98FE99FE00197F1F700C0A2
S11303A0000087E10E943201982F907184FF08C0F9
S11303B083FD05C081EE0E943F0191E001C090E001
S11303C0892FDF91CF911F910F91089584B18C6291
S11303D084B984B18F7E84B981E58CBD08958EBDC6
S11303E00DB407FEFDCF8EB50895DC01CB01880F57
S11303F0991FAA1FBB1F880F991FAA1FBB1F9C010F
S1130400AD01220F331F441F551F220F331F441FFA
S1130410551F60E074E284EF90E00E945302215083
S113042031093093C5002093C40088E18093C10052
S113043086E08093C20008959091C00095FFFCCFA0
S11304408093C6000895CF93DF93EC0188818823BD
S113045021F021960E941C02F9CF8DE00E941C021B
S11304608AE00E941C02DF91CF910895CF93DF931D
S1130470D82FC8E0CC23A1F02C2F30E02150310933
S11304808D2F90E002C0959587952A95E2F780FF1D
S113049002C081E301C080E30E941C02C150EACF84
S11304A0DF91CF910895A1E21A2EAA1BBB1BFD0177
S11304B00DC0AA1FBB1FEE1FFF1FA217B307E4073F
S11304C0F50720F0A21BB30BE40BF50B661F771F97
S11304D0881F991F1A9469F7609570958095909577
S11304E09B01AC01BD01CF010895AEE0B0E0EBE7A4
S11304F0F2E00C9436050D891E8986E08C831A83FC
S113050009838FEF9FE79E838D83AE01475E5F4F24
S11305106F89788DCE0101960E949702EF81F8854C
S1130520E00FF11F10822E96E4E00C945205ABE02C
S1130530B0E0EDE9F2E00C9428056C017B018A013E
S1130540FC0117821682838181FFCCC1CE01019602
S11305503C01F6019381F70193FD859193FF81910D
S11305607F01882309F4BAC1853239F493FD85915A
S113057093FF81917F01853229F4B60190E00E94B6
S11305808E04E7CF912C212C312CFFE1F315D8F008
S11305908B3279F038F4803279F08332A1F4232D50
S11305A020611DC08D3261F0803369F4232D2160F8
S11305B016C0832D8260382EE32DE4603E2E2AC0BF
S11305C0F32DF8601DC037FC2DC020ED280F2A3014
S11305D040F08E32B9F436FC81C1232D2064322ED2
S11305E019C036FE06C08AE0989E200D1124922E72
S11305F011C0EAE02E9E200D1124222EF32DF0626C
S11306003F2E08C08C3621F4832D8068382E02C01A
S1130610883641F4F70193FD859193FF81917F0121
S11306208111B3CF982F9F7D9554933028F40C5F9C
S11306301F4F9FE399830DC0833631F0833771F0E8
S1130640833509F059C021C0F801808189830E5F88
S11306501F4F88248394912C530113C02801F2E086
S11306604F0E511CF801A080B18036FE03C0692DE5
S113067070E002C06FEF7FEFC5010E9483044C015C
S11306808201F32DFF773F2E16C0280122E0420E8F
S1130690511CF801A080B18036FE03C0692D70E0C2
S11306A002C06FEF7FEFC5010E9478044C01F32D67
S11306B0F0683F2E820133FC1BC0822D90E0881627
S11306C09906B0F4B60180E290E00E948E042A9468
S11306D0F4CFF50137FC859137FE81915F01B601B6
S11306E090E00E948E0421102A9421E0821A91083D
S11306F08114910471F7E8C0843611F0893641F50C
S1130700F80137FE07C060817181828193810C5F9B
S11307101F4F08C060817181072E000C880B990B54
S11307200E5F1F4FF32DFF763F2E97FF09C0909564
S11307308095709561957F4F8F4F9F4FF0683F2E46
S11307402AE030E0A3010E94CA04882E861845C01E
S1130750853731F4232D2F7EB22E2AE030E025C0D8
S1130760932D997FB92E8F36C1F018F4883579F01E
S1130770B5C0803719F0883721F0B0C0E92FE061A7
S1130780BE2EB4FE0DC0FB2DF460BF2E09C034FE96
S11307900AC0292F2660B22E06C028E030E005C02A
S11307A020E130E002C020E132E0F801B7FE07C0EA
S11307B060817181828193810C5F1F4F06C06081CB
S11307C0718180E090E00E5F1F4FA3010E94CA0474
S11307D0882E8618FB2DFF773F2E36FE0DC0232D65
S11307E02E7FA22E891458F434FE0BC032FC09C0AB
S11307F0832D8E7EA82E05C0B82CA32C03C0B82C44
S113080001C0B92CA4FE0FC0FE01E80DF11D8081CA
S1130810803321F49A2D997EA92E09C0A2FE06C028
S1130820B394B39404C08A2D867809F0B394A3FCDE
S113083011C0A0FE06C0B21488F4280C922C9B1898
S11308400EC0B21460F4B60180E290E00E948E04FF
S1130850B394F7CFB21418F42B1802C0982C212C9F
S1130860A4FE10C0B60180E390E00E948E04A2FEB4
S113087017C0A1FC03C088E790E002C088E590E0BF
S1130880B6010CC08A2D867859F0A1FE02C08BE215
S113089001C080E2A7FC8DE2B60190E00E948E04C4
S11308A0891438F4B60180E390E00E948E049A948F
S11308B0F7CF8A94F301E80DF11D8081B60190E031
S11308C00E948E048110F5CF222009F442CEB60195
S11308D080E290E00E948E042A94F6CFF60186818D
S11308E0978102C08FEF9FEF2B96E2E10C944405B1
S11308F0FC010590615070400110D8F780959095E7
S11309008E0F9F1F0895FC016150704001900110EB
S1130910D8F7809590958E0F9F1F08950F931F937E
S1130920CF93DF93FB01238121FD03C08FEF9FEF62
S11309302CC022FF16C0468157812481358142177D
S1130940530744F4A081B1819D012F5F3F4F318350
S113095020838C93268137812F5F3F4F37832683F3
S113096014C08B01EC01FB010084F185E02D099595
S1130970892BE1F6D80116968D919C9117970196D3
S113098017969C938E931697CE01DF91CF911F916A
S11309900F910895FA01AA27283051F1203181F1ED
S11309A0E8946F936E7F6E5F7F4F8F4F9F4FAF4F73
S11309B0B1E03ED0B4E03CD0670F781F891F9A1F86
S11309C0A11D680F791F8A1F911DA11D6A0F711D3A
S11309D0811D911DA11D20D009F468943F912AE046
S11309E0269F11243019305D3193DEF6CF0108952E
S11309F0462F4770405D4193B3E00FD0C9F7F6CF5F
S1130A00462F4F70405D4A3318F0495D31FD405226
S1130A10419302D0A9F7EACFB4E0A69597958795BC
S1130A2077956795BA95C9F700976105710508959B
S1130A309B01AC010A2E0694579547953795279547
S1130A40BA95C9F7620F731F841F951FA01D0895DF
S1130A502F923F924F925F926F927F928F929F92CA
S1130A60AF92BF92CF92DF92EF92FF920F931F93B8
S1130A70CF93DF93CDB7DEB7CA1BDB0B0FB6F89469
S1130A80DEBF0FBECDBF09942A88398848885F84A9
S1130A906E847D848C849B84AA84B984C884DF801A
S1130AA0EE80FD800C811B81AA81B981CE0FD11DFE
S1130AB00FB6F894DEBF0FBECDBFED010895F894D4
S1050AC0FFCF62
S1130AC2EEDDCCBBAA426567696E6E696E67202E45
S1130AD22E2E20007472616E736D697474656400E5
S1130AE25961773A2025642C205468727573743ADC
S1130AF22025642C2050697463683A2025642C20D4
S10D0B02526F6C6C3A202564000069
S9030000FC
