S01F00007472616E736D69747465725F746573745F73696E676C652E7372656348
S11300000C9434000C9449000C9449000C9449005D
S11300100C9449000C9449000C9449000C94490038
S11300200C9449000C9449000C9449000C94490028
S11300300C9449000C9449000C9449000C94490018
S11300400C9449000C9449000C9449000C94490008
S11300500C9449000C9449000C9449000C944900F8
S11300600C9449000C94490011241FBECFEFD8E032
S1130070DEBFCDBF11E0A0E0B1E0E8E8F1E002C0EE
S113008005900D92A830B107D9F70E944B000C944B
S1130090C2000C94000060E875E280E090E00E94E9
S11300A05F0080E091E00E948D002FEF83ED90E3EC
S11300B0215080409040E1F700C00000F2CFDC0105
S11300C0CB01880F991FAA1FBB1F880F991FAA1F56
S11300D0BB1F9C01AD01220F331F441F551F220F6C
S11300E0331F441F551F60E074E284EF90E00E94C8
S11300F0A000215031093093C5002093C40088E149
S11301008093C10086E08093C20008959091C0005E
S113011095FFFCCF8093C6000895CF93DF93EC0145
S11301208881882321F021960E948600F9CF8DE0F2
S11301300E9486008AE00E948600DF91CF91089594
S1130140A1E21A2EAA1BBB1BFD010DC0AA1FBB1FD7
S1130150EE1FFF1FA217B307E407F50720F0A21B49
S1130160B30BE40BF50B661F771F881F991F1A94B6
S113017069F760957095809590959B01AC01BD01E0
S10B0180CF010895F894FFCFAC
S10B0188616D6F6775730000DF
S9030000FC
